:020000020000FC
:1000000000C00FEF0DBF08E00EBF0CE304B903E022
:1000100005B90FE007B900E308B908EF0AB904E031
:100020000BB9112733270E941A000E942C000E944E
:100030003C00F9CF189904C01395189BFECF05C05A
:10004000199903C01A95199BFECF1F70012F000F3D
:10005000000F036005B90895349904C03395349BAB
:10006000FECF05C0359903C03A95359BFECF3F7052
:10007000032F006308B908954A9910C0412F430F18
:100080005B9844FD5B9A4F70440F440F440F440F3C
:0E0090000BB10F70042B0BB94A9BFECF0895E5
:00000001FF
